:100000000C94D1050C94F9050C94F9050C94F905A0
:100010000C94F9050C94F9050C94F9050C94F90568
:100020000C94F9050C94F9050C94F9050C94F90558
:100030000C94F9050C94F9050C94F9050C94F90548
:100040000C9448170C94F9050C9416170C94F016A0
:100050000C94F9050C94F9050C94F9050C94F90528
:100060000C9492170C94F90500407A10F35A00A0F2
:10007000724E18090010A5D4E80000E87648170071
:1000800000E40B54020000CA9A3B000000E1F505B1
:10009000000080969800000040420F000000A086FB
:1000A00001000000102700000000E803000000002D
:1000B0006400000000000A000000000001000000D1
:1000C00000002C76D888DC674F0823DFC1DFAE59EB
:1000D000E1B1B796E5E3E453C63AE651997696E87E
:1000E000E6C28426EB898C9B62ED407C6FFCEFBC02
:1000F0009C9F40F2BAA56FA5F490055A2AF75C932D
:100100006B6CF9676DC11BFCE0E40D47FEF520E662
:10011000B500D0ED902E0300943577050080841E45
:10012000080000204E0A000000C80C333333330FA0
:10013000986E12831141EF8D2114893BE65516CF3D
:10014000FEE6DB18D1844B381BF77C1D901DA4BB49
:10015000E424203284725E228100C9F124ECA1E5FE
:100160003D2700000000003E5B4F5B3E3E6B4F6B47
:100170003E1C3E7C3E1C183C7E3C181C577D571C88
:100180001C5E7F5E1C00183C1800FFE7C3E7FF0001
:1001900018241800FFE7DBE7FF30483A060E26294F
:1001A000792926407F050507407F05253F5A3CE712
:1001B0003C5A7F3E1C1C08081C1C3E7F14227F22D8
:1001C000145F5F005F5F06097F017F006689956AA3
:1001D000606060606094A2FFA29408047E0408102E
:1001E000207E201008082A1C08081C2A08081E1057
:1001F0001010100C1E0C1E0C30383E3830060E3E0F
:100200000E06000000000000005F0000000700076D
:1002100000147F147F14242A7F2A12231308646297
:1002200036495620500008070300001C22410000F8
:1002300041221C002A1C7F1C2A08083E0808008056
:1002400070300008080808080000606000201008EE
:1002500004023E5149453E00427F400072494949EF
:10026000462141494D331814127F10274545453921
:100270003C4A494931412111090736494949364625
:100280004949291E00001400000040340000000805
:1002900014224114141414140041221408020159A8
:1002A00009063E415D594E7C1211127C7F49494935
:1002B000363E414141227F4141413E7F49494941CA
:1002C0007F090909013E414151737F0808087F00F9
:1002D000417F41002040413F017F081422417F407F
:1002E0004040407F021C027F7F0408107F3E414156
:1002F000413E7F090909063E4151215E7F091929C6
:1003000046264949493203017F01033F4040403FAF
:100310001F2040201F3F4038403F631408146303F0
:10032000047804036159494D43007F41414102046F
:10033000081020004141417F040201020440404076
:100340004040000307080020545478407F2844446C
:10035000383844444428384444287F385454541886
:1003600000087E090218A4A49C787F080404780081
:10037000447D40002040403D007F10284400004163
:100380007F40007C047804787C0804047838444476
:100390004438FC1824241818242418FC7C0804046D
:1003A00008485454542404043F44243C4040207CD6
:1003B0001C2040201C3C4030403C44281028444C29
:1003C0009090907C4464544C4400083641000000F6
:1003D000770000004136080002010204023C262397
:1003E000263C1EA1A161123A4040207A385454554F
:1003F0005921555579412254547842215554784019
:1004000020545579400C1E527212395555555939A0
:100410005454545939555454580000457C410002F5
:10042000457D420001457C407D1211127DF028255A
:1004300028F07C545545002054547C547C0A097F94
:100440004932494949323A4444443A324A484830A8
:100450003A4141217A3A42402078009DA0A07D3D5A
:100460004242423D3D4040403D3C24FF2424487EE2
:100470004943662B2FFC2F2BFF0929F620C0887ECD
:10048000090320545479410000447D413048484AD2
:1004900032384040227A007A0A0A727D0D19317D85
:1004A0002629292F28262929292630484D40203859
:1004B0000808080808080808382F10C8ACBA2F1018
:1004C0002834FA00007B000008142A142222142A7F
:1004D00014085500550055AA55AA55AAFF55FF55B1
:1004E000FF000000FF00101010FF00141414FF00A4
:1004F0001010FF00FF1010F010F0141414FC001482
:1005000014F700FF0000FF00FF1414F404FC14149F
:1005100017101F10101F101F1414141F001010109C
:10052000F0000000001F101010101F10101010F02D
:1005300010000000FF101010101010101010FF100D
:10054000000000FF140000FF00FF00001F10170054
:1005500000FC04F414141710171414F404F400002D
:10056000FF00F714141414141414F700F7141414DF
:10057000171410101F101F141414F4141010F0107E
:10058000F000001F101F0000001F14000000FC14EA
:100590000000F010F01010FF10FF141414FF1410DE
:1005A00010101F00000000F010FFFFFFFFFFF0F031
:1005B000F0F0F0FFFFFF0000000000FFFF0F0F0F43
:1005C0000F0F3844443844FC4A4A4A347E0202063B
:1005D00006027E027E0263554941633844443C046E
:1005E000407E201E2006027E020299A5E7A5991CE6
:1005F0002A492A1C4C7201724C304A4D4D30304809
:10060000784830BC625A463D3E494949007E010166
:10061000017E2A2A2A2A2A44445F444440514A44FB
:100620004040444A51400000FF0103E080FF0000C9
:1006300008086B6B083612362436060F090F0600C1
:100640000018180000001010003040FF0101001FCA
:1006500001011E00191D1712003C3C3C3C0000002B
:100660000000000103070F1F3F7F0080C0E0F0F88B
:10067000FCFE000000080002010000030407000067
:1006800000000000000000000000240027002A00F5
:10069000DB40A4A62EAF2000A1C8D300408DAED56C
:1006A00080A800000000250028002B00000060004A
:1006B00000000000000000000000000000E000005A
:1006C000000000000000000000000001E000000049
:1006D0000000000000000000000001F00000000029
:1006E00000000000000000000003F0000000000017
:1006F000000000000000000007F000000000000003
:100700000000000000000007F800000000000000EA
:100710000000000000000FF800000003C0007E0091
:100720000001E0007F0FF800000003C000FE0000A1
:1007300001E000FFEFF800000003C000FE00000130
:10074000E000FFFFF800000003C000F00000000F11
:10075000007FFE7FC0000003C000F00000000F001B
:100760003FFE7FF83FF1FBCFFCFEF3BC3DEFE01F07
:10077000FE7FFF7FFBFFDFFEFEFFBC3DEFE01FC6FD
:10078000FFFF7FFBFFDFFEFEFFBC3DEFE00FE3C797
:10079000FE787BC3DE1EF0FFBC3DEF0007FF87FC49
:1007A000787BC3DE1EF0F83C3DEF0001FFFFF00058
:1007B0007BC3C01EF0F03C3DEF0001F37FE03FFB48
:1007C000C3CFFEF0F03C3DEF0003E33F807FFBC36F
:1007D000DFFEF0F03C3DEF0007E73C00787BC3DE36
:1007E0001EF0F03C3DEF0007FFBE00787BC3DE1E2D
:1007F000F0F03C3DEF0007FFFE00787BC3DE1EF00B
:10080000F03C3DEF000FFFFE007FFBFFDFFEF0F04E
:100810003FFDEFE00FFFFF007FFBFFDFFEF0F03F4B
:10082000FDEFE00FF9FF003E79F9CF9EF0F01F3D9C
:10083000E7E01FF1FF0000000000000000000000E2
:10084000001F80FF007FFFFFFFFFFFFFFFFFFFE0B4
:100850001C007F007FFFFFFFFEB46D888D18E00055
:10086000001F007FFFFFFFFE95AD7DB577E0000024
:100870000F007FFFFFFFFEA5AD9D8D19E000000674
:10088000007FFFFFFFFEB5ADEDB57EE0000000008C
:100890000001800000000000000000000380000054
:1008A0000000000000000007C00000000000000081
:1008B000000007C00000000000000000000FC000A2
:1008C00000000000000000001FE000000000000029
:1008D0000000001FE00000000000000000003FE0FA
:1008E0000000000000000000003FF00000000000D9
:1008F000000000007FF0000000000000001FF87FF3
:10090000F0000000000000003FFE7FF0000000004B
:100910000000003FFF7FF0000000000000001FFF0C
:10092000FBE0000000000000000FFFF9FFC0000026
:10093000000000000FFFF9FFF800000000000007B2
:10094000FFF1FFFF00000000000003FC73FFFF80C9
:10095000000000000001FE3FFFFF800000000000DB
:1009600000FF1E0FFF000000000000007FFE1FFCC4
:10097000000000000000003FFFFFF8000000000042
:1009800000000FDFFFE0000000000000001F19FF63
:10099000C0000000000000003F3CFF00000000001D
:1009A0000000007E7CF800000000000000007FFED8
:1009B0007C0000000000000000FFFFFC00000000C1
:1009C00000000000FFFFFE0000000000000000FF2C
:1009D000FFFE0000000000000001FFEFFE0000002D
:1009E0000000000001FFCFFE000000000000000337
:1009F000FF07FE0000000000000003FC07FE0000EF
:100A0000000000000003F003FE00000000000000F2
:100A1000018000FE000000000000000000007E00D9
:100A20000000000000000000003E00000000000088
:100A3000000000000C000000000000078000FC0027
:100A40000003C0000000078001FC000003C000009C
:100A500000078001FC000003C0000000078001E0E7
:100A60000000001E000000078001E00000001E00E2
:100A70007FE3F79FF9FDE7787BDFC0FFF7FFBFFD5E
:100A8000FDFF787BDFC0FFF7FFBFFDFDFF787BDF59
:100A9000C0F0F787BC3DE1FF787BDE00F0F787BC54
:100AA0003DE1F0787BDE0000F787803DE1E0787B78
:100AB000DE007FF7879FFDE1E0787BDE00FFF787B0
:100AC000BFFDE1E0787BDE00F0F787BC3DE1E07838
:100AD0007BDE00F0F787BC3DE1E0787BDE00F0F7DD
:100AE00087BC3DE1E0787BDE00FFF7FFBFFDE1E082
:100AF0007FFBDFC0FFF7FFBFFDE1E07FFBDFC07CD6
:100B0000F3F39F3DE1E03E7BCFC00000000000001A
:100B10000000000000FFFFFFFFFFFFFFFFFFFFC01F
:100B2000FFFFFFFFFD68DB111A31C0FFFFFFFFFD74
:100B30002B5AFB6AEFC0FFFFFFFFFD4B5B3B1A33F5
:100B4000C0FFFFFFFFFD6B5BDB6AFDC05353443109
:100B500033303620616C6C6F636174696F6E206630
:100B600061696C6564000000000023002600290014
:100B70000404040404040404020202020202030343
:100B8000030303030102040810204080010204084B
:100B900010200102040810202200FF210000F61896
:100BA000F21D11241FBECFEFD8E0DEBFCDBF23E082
:100BB000AAEAB1E001C01D92A336B207E1F711E045
:100BC000A0E0B1E0E8EFF9E402C005900D92AA3A86
:100BD000B107D9F715E0C0EDD5E004C02197FE01BB
:100BE0000E94EB22CF3CD107C9F70E9479190C94DF
:100BF000EF240C940000089508950895AF92BF92D9
:100C0000CF92DF92EF92FF920F931F93CF93DF93D8
:100C10006C017B018B01040F151FEB015E01AE1807
:100C2000BF08C017D10759F06991D601ED91FC9129
:100C30000190F081E02DC6010995892B79F7C50156
:100C4000DF91CF911F910F91FF90EF90DF90CF90A8
:100C5000BF90AF900895FC01538D448D252F30E057
:100C6000842F90E0821B930B541710F0CF960895B9
:100C700001970895FC01918D828D981761F0A28DE6
:100C8000AE0FBF2FB11D5D968C91928D9F5F9F73AC
:100C9000928F90E008958FEF9FEF0895FC01918D62
:100CA000828D981731F0828DE80FF11D858D90E0CF
:100CB00008958FEF9FEF0895FC01918D228D892F6C
:100CC00090E0805C9F4F821B91098F739927089554
:100CD00086E792E00E945C0621E0892B09F420E07F
:100CE000822F089580E090E0892B29F00E94680609
:100CF00081110C9400000895FC01A48DA80FB92F58
:100D0000B11DA35ABF4F2C91848D90E001968F7333
:100D10009927848FA689B7892C93A089B1898C9152
:100D2000837080648C93938D848D981306C00288A1
:100D3000F389E02D80818F7D80830895EF92FF926B
:100D40000F931F93CF93DF93EC0181E0888F9B8DEE
:100D50008C8D98131AC0E889F989808185FF15C0A8
:100D60009FB7F894EE89FF896083E889F9898081CB
:100D70008370806480839FBF81E090E0DF91CF919A
:100D80001F910F91FF90EF900895F62E0B8D10E0BC
:100D90000F5F1F4F0F731127E02E8C8D8E110CC02B
:100DA0000FB607FCFACFE889F989808185FFF5CF76
:100DB000CE010E947C06F1CFEB8DEC0FFD2FF11DD3
:100DC000E35AFF4FF0829FB7F8940B8FEA89FB89B3
:100DD00080818062CFCFCF93DF93EC01888D882311
:100DE000B9F0AA89BB89E889F9898C9185FD03C08E
:100DF000808186FD0DC00FB607FCF7CF8C9185FF73
:100E0000F2CF808185FFEDCFCE010E947C06E9CF35
:100E1000DF91CF91089590E0FC01EE58F94F2491B5
:100E2000FC01EC57F44F3491FC01E059F44FE4918C
:100E3000EE23C9F0222339F0233001F1A8F4213048
:100E400019F1223029F1F0E0EE0FFF1FEE55F94FB6
:100E5000A591B4918FB7F894EC91611126C03095AB
:100E60003E233C938FBF08952730A9F02830C9F066
:100E7000243049F7809180008F7D03C080918000ED
:100E80008F7780938000DFCF84B58F7784BDDBCFF1
:100E900084B58F7DFBCF8091B0008F778093B000B9
:100EA000D2CF8091B0008F7DF9CF3E2BDACFCF9398
:100EB000DF9390E0FC01EC57F44F24918059944F5C
:100EC000FC0184918823D1F090E0880F991FFC01E8
:100ED000EA57F94FA591B491FC01EE55F94FC59130
:100EE000D49161110EC09FB7F8948C91E22FE095D8
:100EF0008E238C932881E223E8839FBFDF91CF91DB
:100F000008958FB7F894EC91E22BEC938FBFF6CF56
:100F10001F93CF93DF93182FEB0161E00E945707D7
:100F2000209739F460E0812FDF91CF911F910C94CD
:100F30000B07CF3FD10511F461E0F5CFE12FF0E0D1
:100F4000EE58F94FE491E33031F140F4E130B1F083
:100F5000E230E1F0C038D1057CF7E4CFE73029F189
:100F6000E83059F1E430B1F78091800080628093DD
:100F70008000D0938B00C0938A0004C084B5806841
:100F800084BDC7BDDF91CF911F91089584B5806264
:100F900084BDC8BDF7CF80918000806880938000B9
:100FA000D0938900C0938800EDCF8091B000806815
:100FB0008093B000C093B300E5CF8091B000806211
:100FC0008093B000C093B400DDCF0F931F93CF93F5
:100FD000DF938B01CFEFD0E0BE01681B790B8BE074
:100FE0000E948807BE01601B710B8AE00E9488077F
:100FF0006FEF70E089E0DF91CF911F910F910C941A
:1010000088073FB7F89480915F0290916002A091A9
:101010006102B091620226B5A89B05C02F3F19F06E
:101020000196A11DB11D3FBFBA2FA92F982F882768
:10103000BC01CD01620F711D811D911D42E0660F43
:10104000771F881F991F4A95D1F708958F929F9215
:10105000AF92BF92CF92DF92EF92FF924B015C0171
:101060000E9401086B017C010E9401086C197D0936
:101070008E099F09683E734081059105A8F321E020
:10108000821A9108A108B10888EEC80E83E0D81E24
:10109000E11CF11C81149104A104B10429F7FF9013
:1010A000EF90DF90CF90BF90AF909F908F9008957A
:1010B000EF92FF920F931F93CF93DF93EC01EC809D
:1010C000FD806E157F050CF070C057FF04C0240F23
:1010D000351F50E040E08E819F81FA01E20FF31F3F
:1010E0008E179F071CF49C01241B350B1216130648
:1010F0000CF05BC0922F842F8695869586958E9DE9
:10110000D0018F9DB00D11246A0F7B1FAF8DB8A148
:10111000A60FB71F477049F188E0841B482F682F3E
:1011200070E0FB01E659F94FE491281708F063C01D
:10113000621B71092FEF30E002C0359527956A9543
:10114000E2F7E2230130110539F0B0F10230110568
:1011500061F58C91E82702C08C91E82BEC939417F1
:1011600020F12C813D81A20FB31FE92FE41BE83051
:1011700078F00230110521F58E2F9C9190959C936B
:101180002C813D81A20FB31F88508830B0F7E770E3
:10119000EE2359F0F0E0EE59F94FE49101301105DA
:1011A000F9F010F10230110519F1DF91CF911F9183
:1011B0000F91FF90EF900895E0958C91E823CECFAA
:1011C00081E00115110509F480E081959E2F8C9333
:1011D0002C813D81A20FB31F98509830C0F7D7CF14
:1011E0008C91E82BEC93E1CFE0958C91E823FACF3A
:1011F0008C91E827F7CF0130110509F4ADCFE0F26B
:101200000230110509F4A5CFAE0DBF1DAECF0F936F
:101210001F93CF93DF9377FF04C0260F371F70E033
:1012200060E0DC011496CD91DC91FB01E20FF31F2D
:10123000CE17DF071CF49E01261B370B1216130670
:101240004CF5FA0157FD3796A3E0F595E795AA9579
:10125000E1F7EC9FD001ED9FB00DFC9FB00D112484
:101260006A0F7B1FDC015F96ED91FC91E60FF71F83
:101270004770552781E090E001C0880F4A95EAF752
:10128000482F0130110559F0A8F02E0F3F1F0230F2
:101290001105E1F0DF91CF911F910F9108952E0F6D
:1012A0003F1FE217F307B1F38191DF011197842B00
:1012B0008C93F7CF80952E0F3F1FE217F30751F362
:1012C0009191DF01119798239C93F7CFE217F307D1
:1012D00009F38191DF01119784278C93F7CF0F9346
:1012E0001F93FA01DC0156964C9156974230E9F073
:1012F0004330A1F1413061F514964D915C91DA01D2
:10130000AE1BBF0BFD01E21BF30B77FD0BC0DC0135
:1013100016964D915C916417750724F4AB01BF01DB
:101320000E9407091F910F91089514964D915C91A9
:10133000DA01A61BB70BBD0161507109DC011696DD
:101340004D915C91DA01AE1BBF0BFD01E21BF30B6B
:1013500077FDE8CFAF010E945808E4CF16964D9173
:101360005C91DA01A61BB70BBD0161507109CDCFAD
:101370000F931F93FA01DC0156964C915697423019
:10138000A9F0433091F1413019F514964D915C91DB
:10139000DA01AE1BBF0BFD013197F7FD04C0AB01B5
:1013A000BF010E9458081F910F91089514964D9106
:1013B0005C91DA01A61BB70BBD01DC0116964D91BD
:1013C0005C91DA01AE1BBF0BFD013197621B730B01
:1013D000F7FDE9CFDC0116964D915C91E417F50716
:1013E00014F7AF010E940709DECF16964D915C916C
:1013F000DA01A61BB70BBD01621B730BCECFFC013C
:1014000077FD64C080859185681779070CF05EC010
:1014100057FD5CC082859385481759070CF056C06C
:1014200086898230B1F0833029F1813041F48481A2
:101430009581841B950BAB01BC0161507109213072
:10144000310509F108F443C02230310509F463C0C5
:10145000089584819581DC01A61BB70BBD01615005
:10146000710986819781DC01A41BB50BAD01415048
:101470005109E5CF86819781861B970BBA01AC0194
:1014800041505109DCCFCA0157FD0796A3E095955D
:101490008795AA95E1F7A481B5818A9F90018B9FDA
:1014A000300D9A9F300D1124620F731F078CF0A12D
:1014B000E02DE60FF71F4770552721E030E001C00F
:1014C000220F4A95EAF78081822B80830895CA0112
:1014D00057FD079633E0959587953A95E1F7A481F6
:1014E000B5818A9F90018B9F300D9A9F300D1124FA
:1014F000620F731F078CF0A1E02DE60FF71F4770F6
:10150000552781E090E001C0880F4A95EAF7809561
:1015100090818923DACFCA0157FD079623E095957C
:1015200087952A95E1F7A481B5818A9F90018B9FC9
:10153000300D9A9F300D1124620F731F078CF0A19C
:10154000E02DE60FF71F4770552721E030E001C07E
:10155000220F4A95EAF780818227B7CF08958EBD82
:1015600000000DB407FEFDCF8EB508958CBD9DBD66
:1015700008950895FC016370668B848195812681AE
:101580003781613039F0633029F091878087338764
:1015900022870895318720879387828708952F9225
:1015A0003F924F925F926F927F928F929F92AF92F3
:1015B000BF92CF92DF92EF92FF920F931F93CF9340
:1015C000DF93CDB7DEB76A970FB6F894DEBF0FBED4
:1015D000CDBF9A8F898F7A8369834A01D22E18876B
:1015E0000F833701BC2CDC0159962D913C915A9701
:1015F0002115310509F015C118968D919C91199707
:10160000681779070CF0D7C11A968D919C914817ED
:1016100059070CF0D0C14C2C512CB6E0CB9E600D7C
:10162000711D11247C876B87161617060CF0C3C139
:10163000EA2DF0E0FA87E98793E0EE0FFF1F9A9515
:10164000E1F7F88BEF87CF01840F951F1816190665
:101650000CF0B1C1A98DBA8D58968C91811104C03E
:10166000BFEABD1508F4D394A98DBA8DED91FC9114
:1016700011970284F385E02DCD010995B5E0DB9E3D
:10168000C0011124E981FA81FC83EB83312C212CE8
:101690009C012E593E4F388F2F8B4A2D50E05E8B88
:1016A0004D8BEF89F88DE20DF31D44919E828D8262
:1016B000D12CC12C69817A81620D731D7A8B698B63
:1016C000842F90E09C8B8B8BE98DFA8DA081B1816A
:1016D00040FF82C0F1E0BF126FC0AF126DC01C9618
:1016E000ED91FC912F813885A4014C0D5D1D698918
:1016F0007A89898D9A8D0995EB89FC89F595E7950D
:101700004E2F5FEFC51AD50A6D817E818D899E8926
:10171000680F791F7E836D8398E0C916D10481F626
:10172000AFEF2A1A3A0AEB81FC81E40DF51DFC8328
:10173000EB83F5E02F16310409F0B3CF2F81388504
:1017400026153705B9F0A98DBA8DED91FC91B1E060
:10175000BB1257C0AB1255C069817A816B5F7F4F56
:101760000088F189E02D830128E030E0A401898D13
:101770009A8D0995A98DBA8DED91FC9111970688E6
:10178000F789E02DCD016A960FB6F894DEBF0FBE43
:10179000CDBFDF91CF911F910F91FF90EF90DF9020
:1017A000CF90BF90AF909F908F907F906F905F9001
:1017B0004F903F902F9009941E96ED91FC91EF80F1
:1017C000F88409851A8592014D815E816B817C8147
:1017D000898D9A8D099590CF2F81388526153705EB
:1017E00009F48ACF31E0B31207C0A31205C01C96DA
:1017F000ED91FC91930178CF1E96ED91FC917301D0
:10180000E0CF6B857C85641975090684F785E02D2A
:1018100073010F8518899201A401898D9A8D09950C
:10182000A9CFF90134969491329745915491D91AE0
:10183000B7E0DB9E400D511D1124F9012591349133
:101840003C8B2B8BFA0125903490FA0132967490E0
:1018500031963491398B329664903196449041E0C0
:101860004C1518F04A1508F07FC0662D062C000CA8
:10187000770B7C836B83842D042C000C990B9E8347
:101880008D83A98DBA8DED91FC9111970284F3851A
:10189000E02DCD010995512CD12CC12CEA2DF0E081
:1018A000FA87E9872B2D30E03C872B87A401440D74
:1018B000511D47FC5A95588F4F8B69817A81660D6F
:1018C000711D67FC7A957E876D877989C71608F048
:1018D00051CF2C2D30E04D815E81420F531FA985E1
:1018E000BA854A9FC0014B9F900D5A9F900D1124BD
:1018F000FC01E80DF91DF88BEF87852D612C4F89D0
:10190000588D420F531F5E8B4D8B671408F050C0EB
:1019100044244394480E877041F4C1010196EB8939
:10192000FC89E20DF31DD4901C01D7FE19C0A98DCE
:10193000BA8DED91FC91662D70E0B1E0BB1219C03B
:10194000AB1217C02D853E85620F731F0484F58589
:10195000E02D2F8138854D895E89898D9A8D099575
:10196000DD0C6394842DD1CF1E821D821C821B82CC
:1019700088CF4B815C81640F751FAB85BC856A9FE6
:10198000C0016B9F900D7A9F900D112469817A811F
:10199000680F791F0684F785E02DEF80F8840985AC
:1019A0001A859D014F855889898D9A8D0995D8CFC3
:1019B000570CC3948ACF6A960FB6F894DEBF0FBE59
:1019C000CDBFDF91CF911F910F91FF90EF90DF90EE
:1019D000CF90BF90AF909F908F907F906F905F90CF
:1019E0004F903F902F9008958F929F92AF92CF92F9
:1019F000EF92FF920F931F93CF93DF93EC01262F6B
:101A0000898D9A8D009709F051C06A30D1F41D86F6
:101A10001C868D8948E0849F900111248E859F85C6
:101A2000820F931F9F878E8781E090E0DF91CF9197
:101A30001F910F91FF90EF90CF90AF909F908F905C
:101A400008956D3089F3CC88AD888F898823C1F0E3
:101A50008C859D8536E0C39E800D911D112448859F
:101A600059854817590764F44E855F851D861C8685
:101A700038E0A39EC0011124840F951F9F878E8795
:101A8000EA88FB88088919894E855F856C857D8584
:101A9000CE010E94CF0A2C898C859D8546E0249F2B
:101AA000800D911D11249D878C87BECF6A3069F40B
:101AB0001D861C86FC013896E4912D898E859F85B4
:101AC000E29F800D911D1124ADCF6D3009F4ACCF94
:101AD000FC0134963491631708F4A6CF3296E49152
:101AE000E61708F4A1CFFC01329685909490462F1A
:101AF000431B342F47E0349F800C911C1124F401C8
:101B0000329634913196E4913323A9F1EE2399F181
:101B1000CC88F4013596E491AD884F89442301F1D6
:101B20000E2E000CFF0BE30FF11DCE9EA001CF9EE9
:101B3000500D11246C857D85460F571F688579856A
:101B4000641775076CF44E855F851D861C86FC0145
:101B50003896E491AE9E400D511D11245F874E874B
:101B6000EA88FB88088919894E855F856C857D85A3
:101B7000CE010E94CF0AF4013496E4912C898C8521
:101B80009D85E29F800D911D11248DCF6F927F92D4
:101B90008F929F92AF92BF92CF92DF92EF92FF927D
:101BA0000F931F93CF93DF93EC016B015A0139011F
:101BB0004801E881F9810284F385E02D0995E881E7
:101BC000F9810288F389E02D87019301A501B6010F
:101BD000CE010995A501480D591D41505109E881D3
:101BE000F9810288F389E02D9301B601CE010995B0
:101BF000E881F9810088F189E02D9401A501B60101
:101C0000CE010995C60CD71CB60161507109E88157
:101C1000F9810088F189E02D9401A501CE01099593
:101C2000E881F9810688F789E02DCE01DF91CF9117
:101C30001F910F91FF90EF90DF90CF90BF90AF90EA
:101C40009F908F907F906F9009946F927F928F9268
:101C50009F92AF92BF92CF92DF92EF92FF920F933B
:101C60001F93CF93DF935C01EB016A0149013801B7
:101C70008701DC01ED91FC916217730719F5641679
:101C800075062CF0962D872D3A01C92ED82E960177
:101C9000261937092F5F3F4F048CF58DE02DA301E6
:101CA000BE01C5010995DF91CF911F910F91FF9062
:101CB000EF90DF90CF90BF90AF909F908F907F90EC
:101CC0006F9008954615570591F42617370724F0AD
:101CD000892D4B01C22FD82F9E01281939092F5F5A
:101CE0003F4F068CF78DE02DA601B401DACF0284B8
:101CF000F385E02D0995D501ED91FC910488F589D6
:101D0000E02D83019401A601BE01C5010995D5010D
:101D1000ED91FC910688F789E02DC501DF91CF9107
:101D20001F910F91FF90EF90DF90CF90BF90AF90F9
:101D30009F908F907F906F900994EF92FF920F93F6
:101D40001F93DC011A960D911C911B9718962D91EB
:101D50003C911997ED91FC9100A0F1A1E02D7B0140
:101D600050E040E070E060E009951F910F91FF9016
:101D7000EF9008954F925F926F927F928F929F9211
:101D8000AF92BF92CF92DF92EF92FF920F931F9389
:101D9000CF93DF936C012B015A0139014801DC011B
:101DA000ED91FC910284F385E02D0995E201640C2C
:101DB000751CD601ED91FC91C615D7055CF4008821
:101DC000F189E02D87019401A501BE01C6010995A5
:101DD0002196EFCF0688F789E02DC601DF91CF91DC
:101DE0001F910F91FF90EF90DF90CF90BF90AF9039
:101DF0009F908F907F906F905F904F9009948F92FB
:101E00009F92AF92BF92CF92DF92EF92FF920F9389
:101E10001F93CF93DF93EC015B014A016901E881D5
:101E2000F9810284F385E02D099595012C0D3D1D66
:101E300021503109E881F9810488F589E02D780184
:101E40008401A401B501CE010995E881F9810688D4
:101E5000F789E02DCE01DF91CF911F910F91FF9077
:101E6000EF90DF90CF90BF90AF909F908F900994AC
:101E70008F929F92AF92BF92CF92DF92EF92FF929A
:101E80000F931F93CF93DF93EC015B014A0169012C
:101E90007801E881F9810284F385E02D0995C80C69
:101EA000D91C860101501109E881F9810488F5895E
:101EB000E02D9501A401B501CE010995E881F981D4
:101EC0000688F789E02DCE01DF91CF911F910F9108
:101ED000FF90EF90DF90CF90BF90AF909F908F904A
:101EE0000994EF92FF920F931F93DC01ED91FC9107
:101EF00000A0F1A1E02D09951F910F91FF90EF90A7
:101F000008950F931F93DC01ED91FC91068CF78DE2
:101F1000E02D09951F910F9108950F931F93DC01F8
:101F2000ED91FC91048CF58DE02D09951F910F9199
:101F30000895DC01ED91FC910084F185E02D099478
:101F40003F924F925F926F927F928F929F92AF9249
:101F5000BF92CF92DF92EF92FF920F931F93CF9396
:101F6000DF935C017B014A016901390187E0680E5A
:101F7000711C93E0759467949A95E1F72B01400EDC
:101F8000511E10E000E0312CD0E0C0E0CE0187709F
:101F90009927330C892B59F4FE0183E0F595E795D9
:101FA0008A95E1F7E00FF11FE80DF91D349037FE37
:101FB0000AC021E030E0A701B5016C0F7D1F8FE161
:101FC00093E00E94990F2196CC16DD06F9F68FEF6B
:101FD000E81AF80A060D171DE414F504A9F6DF91B6
:101FE000CF911F910F91FF90EF90DF90CF90BF9016
:101FF000AF909F908F907F906F905F904F903F90A9
:1020000008952F923F924F925F926F927F928F929C
:102010009F92AF92BF92CF92DF92EF92FF920F9377
:102020001F93CF93DF9300D000D000D0CDB7DEB7A1
:102030003C016A013E832D83FC82EB825801A41A85
:10204000B50AB7FE03C0B194A194B1088D809E80FB
:10205000861A970A97FE03C09194819491088A1476
:102060009B045CF0902F812F0D811E819D838E83B8
:102070009C2D8D2D6B01692F782F0C151D055CF0A3
:102080009D818E817E836D83692F782F902F812F84
:102090008601C92ED82E1601201A310A2B012D8156
:1020A0003E81421A530A57FE03C05194419451088D
:1020B000710137FE03C03FEFE31AF30AF594E7948A
:1020C0008D819E81861797075CF5A1E0B0E0BA8309
:1020D000A983C016D1064CF1D301ED91FC91048483
:1020E000F585E02D2B813C81A8016D817E818A14CC
:1020F0009B041CF04D815E81B801C3010995E41871
:10210000F508F7FE0AC02D813E8189819A81280F4A
:10211000391F3E832D83E20CF31C0F5F1F4FD9CF75
:102120002FEF3FEF3A832983D4CF26960FB6F8944A
:10213000DEBF0FBECDBFDF91CF911F910F91FF90FA
:10214000EF90DF90CF90BF90AF909F908F907F9057
:102150006F905F904F903F902F9008950895209139
:102160001002260F3327331F21323105ECF4209162
:102170003402FC0190E080E0243069F082E00895B0
:10218000A09110022191AC0140515E4FA40FB52FD8
:10219000B11D2C930196861798F380911002680F59
:1021A0006093100280E0089581E008951092340257
:1021B00081E0809336021092350261E082E10E9454
:1021C0000B0761E083E10E940B07E9EBF0E08081FF
:1021D0008E7F808380818D7F808388E48093B800A8
:1021E00085E48093BC000895CF93DF9391E09093B2
:1021F000EF018823B9F0C091B800D091BA00809166
:10220000BC008A7B8093BC0060E082E10E940B07E7
:1022100060E083E10E940B070E94D610D093BA00C1
:10222000C093B800DF91CF910895E0916902809149
:102230006802E81730F4F0E0E653FE4F808190E04A
:1022400008958FEF9FEF0895909169028091680241
:102250002FEF3FEF981748F4E92FF0E0E653FE4FD9
:10226000208130E09F5F90936902C90108958091B9
:10227000680290916902891B990B0895CF92DF92B1
:10228000EF92FF920F931F93CF93DF937C01CB01CB
:102290008A0120917502222389F0EB016B01C40EA3
:1022A000D51ECC15DD0569F06991D701ED91FC9142
:1022B0000190F081E02DC7010995F3CF642F0E94B2
:1022C000AF10C801DF91CF911F910F91FF90EF9058
:1022D000DF90CF900895CF93DF931F92CDB7DEB7F5
:1022E0006983209175022223F9F020917202203235
:1022F00058F021E030E0FC013383228390E080E05D
:102300000F90DF91CF91089580917302E82FF0E054
:10231000E655FE4F998190838F5F8093730280937F
:10232000720281E090E0ECCF61E0CE0101960E9464
:10233000AF10F7CFCF92DF92EF92FF920F931F93E0
:10234000CF93DF93D091720281E0D13208F09CC02C
:10235000C09174020E9401086B017C0180913402DB
:1023600081116CC082E08093340281E08093360258
:102370008FEF8093330210925802D0935702AAEA4B
:10238000B1E0E7E3F2E080E0D8138DC0109259028B
:1023900080915902CC0FC82BC0935902809135020D
:1023A000813009F084C0109235020E9401086B014F
:1023B0007C01809159028093BB008091EB01909148
:1023C000EC01A091ED01B091EE01892B8A2B8B2BB2
:1023D000A1F00E9401080091EB011091EC01209105
:1023E000ED013091EE016C197D098E099F090617E8
:1023F00017072807390708F442C08091BC0083FD05
:10240000D8CF85EC8093BC000E9401086B017C0151
:1024100080913402823009F44CC0809133028F3FA6
:1024200009F469C080913302803209F466C080915A
:102430003302803309F463C084E026C08091EB014D
:102440009091EC01A091ED01B091EE01892B8A2BC6
:102450008B2B09F483CF0E9401080091EB011091AE
:10246000EC012091ED013091EE016C197D098E098E
:102470009F09061717072807390708F06FCF8091C3
:10248000EA010E94F41085E0109273021092720229
:1024900010927502DF91CF911F910F91FF90EF90F5
:1024A000DF90CF9008959D9191938F5F6DCF85EED2
:1024B000A9CF8091EB019091EC01A091ED01B09139
:1024C000EE01892B8A2B8B2B09F4A2CF0E940108E5
:1024D0000091EB011091EC012091ED013091EE01A2
:1024E0006C197D098E099F090617170728073907F8
:1024F00008F08ECFC4CF80E0C7CF82E0C5CF83E0A5
:10250000C3CFFF920F931F93CF93DF93F82ED92F52
:10251000C62F80913C0390913D03009709F452C06F
:102520002091400331E030937502209374021092A1
:10253000730210927202DC01ED91FC910190F08126
:10254000E02D60E009950F2D1D2FD1E0FF24F394BD
:10255000C15080913C0390913D03CF3F61F1D03257
:10256000C8F00E949A1180913C0390913D03209104
:102570004003F0927502209374021092730210923D
:102580007202DC01ED91FC910190F081E02D60E0A0
:102590000995D1E080913C0390913D03F80164914D
:1025A000DC01ED91FC910190F081E02D0995DF5F58
:1025B0000F5F1F4FCDCFDF91CF911F910F91FF90F4
:1025C0000C949A11E0914C03F0914D03908180910D
:1025D00052038095892380830F2D1D2FC15008F44D
:1025E00038C0F801849120913A0330913B03232BAA
:1025F00029F00E94AF0A0F5F1F4FF0CF28E030E0B4
:1026000040E8E0914803F091490390915003582F1E
:102610005423D9F05081952B9083E0914A03F09197
:102620004B03908150915103952B9083E0914A0385
:10263000F0914B0350819091510390959523908395
:10264000469521503109E9F6D6CF508190959523D2
:10265000E3CFDF91CF911F910F91FF9008951F93CA
:10266000CF93DF93EC018D8D9E8D009721F1162F76
:1026700029A131E030937502209374021092730205
:1026800010927202DC01ED91FC910190F081E02D3D
:1026900060E009958D8D9E8DDC01ED91FC9101909E
:1026A000F081E02D612F09958D8D9E8DDF91CF9169
:1026B0001F910C949A11ADA5BEA59C918BA98095F4
:1026C00089238C938B8D9C8D892B31F0862FDF9104
:1026D000CF911F910C94AF0A28E030E080E8A9A5C3
:1026E000BAA599A9462F4823C1F04C91942B9C93ED
:1026F000ABA5BCA59C914AA9942B9C93ABA5BCA56A
:102700004C919AA9909594239C93869521503109D8
:1027100031F7DF91CF911F9108954C9190959423BB
:10272000E6CFEF92FF920F931F93CF93DF938091A9
:102730003C0390913D03892B09F493C020915403ED
:1027400030915503409156035091570360E074E275
:1027500084EF90E00E94C9222051310941095109BA
:1027600056954795379527952093B80065E088E9F9
:102770009BE00E9481126091230361508FE193E0FE
:102780000E942F132091250330912603C90107963B
:1027900097FD079623E0959587952A95E1F7209177
:1027A000230330912403829F8001839F100D929F09
:1027B000100D1124C0913E03D0913F0380913C0342
:1027C00090913D030C0F1D1F009709F489C02091C3
:1027D000400331E03093750220937402109273022B
:1027E00010927202DC01ED91FC910190F081E02DDC
:1027F00060E40995FF24F394EE24E39480913C0374
:1028000090913D030C171D0709F442C0BFE1BF15AD
:10281000D0F40E949A1180913C0390913D03209145
:102820004003E0927502209374021092730210929A
:102830007202DC01ED91FC910190F081E02D60E4E9
:102840000995FF24F39480913C0390913D03699195
:10285000DC01ED91FC910190F081E02D0995F3945C
:10286000CDCF80913A0390913B03892B31F0809139
:102870005D0390915E030E94B60AE0914E03F091D1
:102880004F039081809153038095892380836ECF7D
:102890000E949A1180913C0390913D03892B09F489
:1028A00060C0209158033091590340915A035091D0
:1028B0005B0360E074E284EF90E00E94C922205143
:1028C0003109410951095695479537952795209328
:1028D000B800DF91CF911F910F91FF90EF90089575
:1028E000E0914C03F0914D03808190915203892B2C
:1028F00080830C171D0771F2899120913A03309162
:102900003B03232B19F00E94AF0AF3CF28E030E0FD
:1029100040E8E0914803F091490390915003582F0B
:102920005423D9F05081952B9083E0914A03F09184
:102930004B03908150915103952B9083E0914A0372
:10294000F0914B0350819091510390959523908382
:10295000469521503109E9F6CCCF508190959523C9
:10296000E3CFE0914E03F0914F03808190915303A8
:10297000892B8083AECF1F93CF93DF93EC01162F6B
:102980008D8D9E8D892BB1F12DA93EA94FA958ADF2
:1029900060E074E284EF90E00E94C9222051310986
:1029A0004109510956954795379527952093B800C9
:1029B00066EA111167EACE010E942F138D8D9E8D5C
:1029C000892B41F129AD3AAD4BAD5CAD60E074E2CD
:1029D00084EF90E00E94C922205131094109510938
:1029E00056954795379527952093B800DF91CF915D
:1029F0001F9108958B8D9C8D892B21F08EAD9FADFD
:102A00000E94B60AEFA5F8A990818CA98095892328
:102A10008083CECFEFA5F8A980819CA9892B8083E4
:102A2000E5CF90E080E008952091250330912603C2
:102A3000C901079697FD079623E0959587952A95F6
:102A4000E1F72091230330912403829FA001839F0B
:102A5000500D929F500D112470E060E080913E0374
:102A600090913F030C94E124CF93DF93EC01888194
:102A70009981009711F00E948D23198218821D827E
:102A80001C821B821A82DF91CF910895FB01019075
:102A90000020E9F73197AF01461B570BDC01ED91A0
:102AA000FC910280F381E02D09948F929F92AF9266
:102AB000BF920F931F93CF93DF93CDB7DEB7A1974C
:102AC0000FB6F894DEBF0FBECDBF19A2423008F496
:102AD0004AE08E010F5D1F4F842E912CB12CA12C4A
:102AE000A50194010E94C922E62FB901CA01EA306A
:102AF00004F5E05DD801EE938D01232B242B252BCB
:102B000079F790E080E0109729F0BD0186E792E028
:102B10000E944615A1960FB6F894DEBF0FBECDBF3A
:102B2000DF91CF911F910F91BF90AF909F908F90A9
:102B30000895E95CDFCF4F925F926F927F928F9200
:102B40009F92AF92BF92CF92DF92EF92FF920F933C
:102B50001F93CF936B017C01742EAC019B010E94EB
:102B6000C42266E571E0811126C046015701E89450
:102B7000B7F82FEF3FEF4FE75FE7C501B4010E94C1
:102B8000C42281110CC02FEF3FEF4FE75FE7C50173
:102B9000B4010E9456206AE571E0181664F02FEF28
:102BA0003FEF4FE75FE4C701B6010E94BF2218164E
:102BB000ACF46EE571E086E792E0CF911F910F9142
:102BC000FF90EF90DF90CF90BF90AF909F908F904D
:102BD0007F906F905F904F900C9446152FEF3FEFD2
:102BE0004FE75FECC701B6010E94562087FDE1CF99
:102BF00020E030E0A901C701B6010E94562010E094
:102C000000E087FF0AC06DE286E792E00E949E0620
:102C10008C01F7FAF094F7F8F094C0E060E070E00F
:102C200080E09FE37C1641F020E030E040E251E498
:102C30000E941E22CF5FF6CFA70196010E94B2210B
:102C40002B013C010E9490224B015C014AE00E9452
:102C500055157C01E00EF11ECC23C1F1C501B40174
:102C60000E945B209B01AC01C301B2010E94B12113
:102C70004B015C016EE286E792E00E949E06E80E40
:102C8000F91EC15018F120E030E040E251E4C501E6
:102C9000B4010E94BC202B013C010E9490224B01F8
:102CA000B12CA12C4AE0C501B4010E945515E80ED3
:102CB000F91EC501B4010E945B209B01AC01C30158
:102CC000B2010E94B1214B015C01DBCFC701CF9162
:102CD0001F910F91FF90EF90DF90CF90BF90AF903A
:102CE0009F908F907F906F905F904F900895CF93BB
:102CF000DF93FC0144815581608171818FE193E014
:102D00000E94FE05EC0162E671E08FE193E00E9413
:102D100046158C0F9D1FDF91CF9108950E94D324FB
:102D20000F931F93CF93DF93EC01888199810097D4
:102D300059F02A813B812617370730F081E0DF9177
:102D4000CF911F910F9108958B016F5F7F4F0E946C
:102D50001624009759F0998388831B830A832C815A
:102D60003D81232B59F7FC011082E8CF80E0E7CFAB
:102D700085ED8093BC008091EB019091EC01A091D6
:102D8000ED01B091EE010796A11DB11D23E0B695AE
:102D9000A795979587952A95D1F72091BC0024FD9A
:102DA00003C01092340208954091EB015091EC0160
:102DB0006091ED017091EE01452B462B472B69F395
:102DC0000097A105B10541F025E32A95F1F7000030
:102DD0000197A109B109E1CF8091EA010C94F410A7
:102DE0001F920F920FB60F9211242F933F934F9380
:102DF0005F936F937F938F939F93AF93BF93EF9363
:102E0000FF9386E792E00E947C06FF91EF91BF91CD
:102E1000AF919F918F917F916F915F914F913F9172
:102E20002F910F900FBE0F901F9018951F920F9229
:102E30000FB60F9211242F938F939F93EF93FF93CD
:102E4000E0918602F09187028081E0918C02F091FE
:102E50008D0282FD1BC0908180918F028F5F8F73E6
:102E600020919002821741F0E0918F02F0E0EA5841
:102E7000FD4F958F80938F02FF91EF919F918F91DE
:102E80002F910F900FBE0F901F9018958081F4CF57
:102E90001F920F920FB60F9211242F933F938F938F
:102EA0009F93AF93BF9380915B0290915C02A0913E
:102EB0005D02B0915E0230915A0223E0230F2D375C
:102EC00058F50196A11DB11D20935A0280935B0213
:102ED00090935C02A0935D02B0935E0280915F02CA
:102EE00090916002A0916102B09162020196A11DD1
:102EF000B11D80935F0290936002A0936102B09332
:102F00006202BF91AF919F918F913F912F910F904E
:102F10000FBE0F901F90189526E8230F0296A11D53
:102F2000B11DD2CF1F920F920FB60F9211242F9383
:102F30003F934F935F936F937F938F939F93AF9341
:102F4000BF93EF93FF938091B900887F803609F497
:102F50004AC0F0F5883209F4A7C018F5803109F4A9
:102F60009BC0B8F4882309F4F9C0883009F494C0F0
:102F7000FF91EF91BF91AF919F918F917F916F9151
:102F80005F914F913F912F910F900FBE0F901F9027
:102F90001895883109F488C0803251F78093330244
:102FA00014C0803409F49DC040F48033B9F38833F1
:102FB000F9F68093330285ECB0C0803509F485C002
:102FC000883509F496C0883499F60E94B816D0CF97
:102FD000883909F48CC038F5883729F050F48836E0
:102FE00011F0803729F683E0809334021092320288
:102FF00057C0883809F47BC0803919F0803809F04F
:10300000B7CF80913202803208F071C0E091320275
:1030100081E08E0F809332028091BB00F0E0EE5E83
:10302000FD4F80833DC0803B39F0E0F4803A09F4E5
:1030300079C0883A09F09CCF84E0809334021092E2
:10304000110210921002E0916602F0916702099558
:103050008091100281110FC081E0809310021092C4
:10306000F00109C0803C09F4A6CF883C09F4A3CF45
:10307000883B09F07DCFE091110281E08E0F8093B3
:103080001102F0E0E051FE4F80818093BB009091EF
:1030900011028091100229C0809159028093BB00D7
:1030A00085EC8093BC0064CF9091580280915702C8
:1030B000981758F5E091580281E08E0F80935802DE
:1030C000F0E0E95CFD4F8081E9CFE091580281E0BA
:1030D0008E0F809358028091BB00F0E0E95CFD4FB9
:1030E000808390915802809157029817C8F285E822
:1030F000D8CFE091580281E08E0F809358028091E2
:10310000BB00F0E0E95CFD4F8083809136028111C5
:103110005CCF81E08093350284EA8093BC001092FA
:10312000340226CF85EC8093BC001092340280914B
:103130003202803230F4E0913202F0E0EE5EFD4F78
:1031400010826091320270E0E0916402F0916502B9
:1031500082E192E00995109232020ACF1092330276
:1031600034CFCF92DF92EF92FF920F931F93E82F0D
:10317000F92F05C0015011092109310961F1908130
:1031800096239417B9F305C001501109210931099B
:1031900011F1908196239413F7CFC12CD12CE12CFF
:1031A000F12C0AC08FEFC81AD80AE80AF80A0C15E1
:1031B0001D052E053F0579F080818623841791F344
:1031C0006C2D7D2D8E2D9F2D1F910F91FF90EF90D7
:1031D000DF90CF90089560E070E080E090E01F9174
:1031E0000F91FF90EF90DF90CF900895E6E7F2E027
:1031F0001382128248EE53E060E070E0448355830E
:10320000668377838AE091E09183808385EC90E008
:103210009587848784EC90E09787868780EC90E0A0
:10322000918B808B81EC90E0938B828B82EC90E091
:10323000958B848B86EC90E0978B868B118E128E0B
:10324000138E148EA3E1B3E013961C921E92129774
:1032500014964D935D936D937C9317978CE191E059
:1032600011969C938E93EFE1F3E01382128220E893
:1032700030E03583248380E490E097838683318730
:10328000208793878287168A158614861786168666
:1032900081E0858B848B2FEF3FEF338B228B318B3B
:1032A000208B878B108E128E118E8EE291E091838F
:1032B0008083148E138EB68FA58F10A2178E8FEF7A
:1032C00084A385A386A387A380A780E89AE1A6E0CC
:1032D000B0E085AB96ABA7ABB0AF80EA96E8A1E0D3
:1032E000B0E081AF92AFA3AFB4AF80E586AF17AEC9
:1032F0000895CF93DF93CDB7DEB7A7970FB6F894B5
:10330000DEBF0FBECDBF789484B5826084BD84B526
:10331000816084BD85B5826085BD85B5816085BDD0
:1033200080916E00816080936E0010928100809188
:103330008100826080938100809181008160809310
:103340008100809180008160809380008091B10035
:1033500084608093B1008091B00081608093B00060
:1033600080917A00846080937A0080917A008260F4
:1033700080937A0080917A00816080937A008091B6
:103380007A00806880937A001092C100E0918602F2
:10339000F091870282E08083E0918202F0918302C3
:1033A0001082E0918402F091850280E18083109286
:1033B0008E02E0918A02F0918B0286E08083E09198
:1033C0008802F0918902808180618083E091880287
:1033D000F0918902808188608083E0918802F09179
:1033E0008902808180688083E0918802F09189025F
:1033F00080818F7D808380913E0390913F03892B54
:1034000011F10E941415209125033091260380911B
:10341000230390912403213231050CF04BC0B901F4
:103420006052710977FF02C06F5F7F4F7595679596
:103430008357910997FD019600E210E023E730E001
:103440004CEA56E04AC02091250330912603C90179
:10345000079697FD0796B3E095958795BA95E1F79E
:103460002091230330912403AC01429FC001439F6C
:10347000900D529F900D11240E94F12290933F03D2
:1034800080933E03892B09F0BCCF0CE41BE0F801CC
:103490006491662341F086E792E00E949E060F5FEA
:1034A0001F4F892BA1F762E671E086E792E00E9448
:1034B0004615FFCFB9016054710977FF02C06F5FF5
:1034C0007F4F759567958255910997FD019600E4A8
:1034D00010E022E530E04CE858E0959587950E9491
:1034E000A00F82E08093410380913C0390913D03C3
:1034F000892B09F46CC28CE380934003109269021B
:103500001092680210927302109272020E94D610FA
:103510008CEF95E090936702809366028DEF95E0C3
:1035200090936502809364028091470387FD1EC0DB
:1035300061E00E94570761E0809147030E940B07FA
:1035400061E070E080E090E00E94260860E08091F9
:1035500047030E940B076AE070E080E090E00E9461
:10356000260861E0809147030E940B0780913C038D
:1035700090913D03892B09F4E9C2209154033091C5
:103580005503409156035091570360E074E284EF75
:1035900090E00E94C92220513109410951095695F4
:1035A0004795379527952093B80064E08EE996E01B
:1035B0000E9481126091250361508FE193E00E9487
:1035C0002F1364E08AE996E00E9481128091410302
:1035D00064E1813009F460E18FE193E00E942F13F0
:1035E00064E086E996E00E9481128FE880935C0394
:1035F00080912303909124038038910509F0BFC284
:1036000080912503909126038034910509F0C7C26B
:1036100080914103813009F4B0C28FEC80935C0348
:1036200012E16AED8FE193E00E942F13612F8FE189
:1036300093E00E942F1361E88FE193E00E942F1323
:1036400060915C038FE193E00E942F1369ED8FE19D
:1036500093E00E942F138091410361EF813009F4C0
:1036600062E28FE193E00E942F1366E080E996E02A
:103670000E94811280913C0390913D03892B09F4B3
:1036800092C2209158033091590340915A035091AE
:103690005B0360E074E284EF90E00E94C922205155
:1036A000310941095109569547953795279520933A
:1036B000B8000E94141560E08FE193E00E94BA0AFE
:1036C00081E0809333038093340381E090E0909312
:1036D0003203809331039093300380932F03109231
:1036E0002C0310922B0310922E0310922D030E9494
:1036F000911361E08BE00E94570761E08AE00E942D
:10370000570761E089E00E94570761E082E00E946C
:10371000570760E083E00E94570793E0E92EF12C01
:1037200023E2C22ED12C37E8432E3BE0532E43E751
:10373000642E4BE0742E50E0252E50E0352E60E0D4
:1037400082E00E940B07C7010197F1F761E082E078
:103750000E940B07C6010197F1F760E082E00E942A
:103760000B07F2016491F3018491E82FF0E0EE0F72
:10377000FF1FEA59F44F8591949100E412E42FE081
:1037800030E0462F0E94B118611571058105910541
:1037900029F06F5F7F4F8F4F9F4F9F700E945B207C
:1037A00028E23EE74CE05DE30E94BC2020E030E0F0
:1037B00040E05FE30E94BC2060936E0270936F0252
:1037C00080937002909371022CE033E949EC5EE340
:1037D0000E94BC204B015C0180926A0290926B02B5
:1037E000A0926C02B0926D0220E030E040EC50E418
:1037F0000E94562070E060E01816BCF420E030E033
:1038000040EC50E4C501B4010E94BF2218160CF030
:10381000D4C120E030E040E451E4C501B4010E948D
:10382000562087FFCAC16FEF70E08FEF90E00E94D3
:10383000E5070E94141510922C0310922B0310928E
:103840002E0310922D0365E671E08FE193E00E9454
:10385000461562E671E08FE193E00E9446156091A3
:103860006A0270916B0280916C0290916D021BA2B2
:103870001AA21DA21CA21FA21EA28E010F5F1F4F23
:1038800022E044E00E94011E4C01009779F0FC0107
:1038900001900020E9F731978F01081B190BB8013F
:1038A000CE0182960E94901681118CC1CE01829623
:1038B0000E943415CE0182960E9477168AA19BA1A0
:1038C000009711F00E948D236DE671E08FE193E087
:1038D0000E94461562E671E08FE193E00E94461572
:1038E00060916E0270916F028091700290917102EE
:1038F0001BA21AA21DA21CA21FA21EA28E010F5F54
:103900001F4F22E044E00E94011E4C01009779F015
:10391000FC0101900020E9F731978F01081B190B7A
:10392000B801CE0182960E949016811153C1CE013A
:1039300082960E943415CE0182960E9477168AA143
:103940009BA1009711F00E948D230E9491136AE7BA
:1039500071E086E792E00E94461560916A027091DC
:103960006B0280916C0290916D0242E00E949B1567
:1039700062E671E086E792E00E94461560E971E038
:1039800086E792E00E94461560916E0270916F0288
:10399000809170029091710242E00E949B1562E654
:1039A00071E086E792E00E94461564EF71E080E0E6
:1039B00090E00E9426082114310409F4C0CE0E9430
:1039C0006806882309F4BBCE0E940000B8CE61E0EF
:1039D000809145030E94570761E0809146030E9451
:1039E000570780914503082E000C990BFC01E05904
:1039F000F44FE491F0E0EE0FFF1FEE55F94F2591E3
:103A0000349130934D0320934C03FC01EC57F44F59
:103A1000E491E093520380914603082E000C990B29
:103A2000FC01E059F44FE491F0E0EE0FFF1FEE557A
:103A3000F94FA591B491B0934F03A0934E03FC01AD
:103A4000EC57F44FE491E09353038C91E82BEC9303
:103A500080913A0390913B03892B09F434C01FB73E
:103A6000F89480916302811127C0EAE7FBE084911A
:103A7000EEE8FBE09491E82FF0E0EE0FFF1FEA572D
:103A8000F94FA591B491EC91E92321F461E08AE02A
:103A90000E940B0761E08AE00E9457078CB58061A5
:103AA0008CBD8CB580648CBD61E08DE00E945707B1
:103AB00061E08BE00E945707809163028F5F8093E3
:103AC00063021FBF31CD61E0809143030E9457071D
:103AD00061E0809144030E94570780914303082EC0
:103AE000000C990BFC01E059F44FE491F0E0EE0F6B
:103AF000FF1FEE55F94F25913491309349032093E0
:103B00004803FC01EC57F44FE491E093500380919B
:103B10004403082E000C990BFC01E059F44FE4918A
:103B2000F0E0EE0FFF1FEE55F94FA591B491B09361
:103B30004B03A0934A03FC01EC57F44FE491E0934C
:103B400051038C91E095E823EC93EECC80913A03FD
:103B500090913B03892B31F080915D0390915E033E
:103B60000E94B60AE0914E03F0914F03908180913C
:103B7000530380958923808318CD8FE94FCD8036FC
:103B8000910569F48091250390912603409739F4BB
:103B900080914103813029F08FEA80935C0312E029
:103BA00040CD80E1FACFE0914E03F0914F03808148
:103BB00090915303892B80837CCD6FEF70E090E070
:103BC00080E035CE1FA30EA3B4018AA19BA10E9461
:103BD000E82470CE1FA30EA3B4018AA19BA10E946A
:103BE000E824A9CE8EE291E09093200380931F03F6
:103BF00080913E0390913F03009711F00C948D2328
:103C00000895EF920F931F93CF93DF93E80134E071
:103C100047FD34E1042E000C550B57FF03C05195AE
:103C200041955109E32E022F242FAE010E941F1E41
:103C3000CE01DF91CF911F910F91EF900895A9E0F0
:103C4000B0E0E5E2FEE10C9480216A01F22EB02E94
:103C5000102FFBE3AF2EA01608F41BE31F5F012F0C
:103C600027E0AE014F5F5F4F0E947E1FBC0189813C
:103C7000982F9970913009F43FC09BE2E1FC04C099
:103C80009E2D9170E0FC3AC05E2D5071E82FE870D7
:103C900083FF46C084E0911101C083E0EF2DE81B53
:103CA0008F1508F0E0E0D6018E2F20E2552351F168
:103CB000992329F0D6019C93C60101966C019601C7
:103CC0002D5F3F4FE2FE24C08EE4D6018C9391E439
:103CD00011969C93119712968C93D9018E2F90E296
:103CE00081111BC0E20FF32FF11D10828EEF9FEFA9
:103CF0002996ECE00C949C219DE2C6CF90E2C4CFC3
:103D00002D9381508111FCCFCE0ED11CE0E0D0CF9D
:103D10008EE6D6018C9391E6DBCF9D938150E0CF68
:103D2000482F447082FF3DC084E0911101C083E0C0
:103D30008F1510F4EF2DE81BD6018E2F20E25523AE
:103D400009F1992329F0D6019C93C60101966C01D3
:103D500096012D5F3F4FE2FE1BC089E4D6018C9394
:103D60008EE411968C93119786E412968C93D90168
:103D70008E2F90E2882309F4B5CF9D938150FACF1E
:103D80002D9381508111FCCFCE0ED11CE0E0D9CF14
:103D900089E6D6018C938EE611968C93119786E670
:103DA000E4CF9B0177FF02C030E020E0A1E0B0E06B
:103DB000911102C0B0E0A0E0F9013196AE0FBF1F33
:103DC0008B2C912CBB2009F461C05401EFEFAE1A8B
:103DD000BE0AAA0DBB1DFA161B0619F014F04F2DD2
:103DE0004A1B511188C0E3FC59C07601A42FB0E2F0
:103DF000A1114FC0C40ED11C992309F45BC040E04F
:103E0000D6011196F60190836D01552309F448C03F
:103E1000012F060F9A81582F507184FF03C09133F0
:103E200009F4015010160CF047C0093008F008E002
:103E3000EEE2FE2E5B01A01AB108850191948194F7
:103E400091082F3F320729F4D601FC92F6013196F2
:103E50006F016217730794F1021713077CF5DB01FA
:103E6000A21BB30BAA24A394B12CAC0EBD1EAA0DA9
:103E7000BB1D11968C9121503109D6011196281540
:103E80003905F4F0F60180836D01DBCFB12CA12C54
:103E9000A0CFF701B1937F01A150AACF9111B0CF6C
:103EA000D601942F50E302C05D9391509111FCCF45
:103EB000C40ED11C40E0ACCF01E0BACF80E3DBCF31
:103EC0006217730731F4963388F4953311F4552350
:103ED00069F0F6018083FD01842F90E2811108C012
:103EE000A40FB11D1C9290E080E002CF81E3F1CFDE
:103EF00091938150F3CF911183CF8ACF283008F06E
:103F000027E03327DA01990F311D87FD9160009674
:103F10006105710539F432602E5F3D9330E32A95D7
:103F2000E1F708959F3F30F080387105610509F091
:103F30003C5F3C5F3D93913008F08068911DDF93BA
:103F4000CF931F930F93FF92EF92192F987F96951F
:103F5000E92F96959695E90FFF27EE53FF4F992786
:103F60003327EE24FF24A701E70105900894079466
:103F700028F4360FE71EF81E491F511D660F771FE4
:103F8000881F991F0694A1F70590079428F4E70E5F
:103F9000F81E491F561FC11D770F881F991F661FE6
:103FA0000694A1F70590079428F4F80E491F561FB0
:103FB000C71FD11D880F991F661F771F0694A1F791
:103FC0000590079420F4490F561FC71FD81F990F5B
:103FD000661F771F881F0694A9F7849110951770A4
:103FE00041F0D695C79557954795F794E7941A955C
:103FF000C1F7E8E6F0E06894159015913591659168
:10400000959105907FE27395E118F10A430B560BE9
:10401000C90BD009C0F7E10CF11E431F561FC91F81
:10402000D01D7EF4703311F48A95E6CFE8940150E8
:1040300030F0080F0AF40027021708F4202F239508
:10404000022F7A3328F079E37D932A95E9F710C09F
:104050007D932A9589F606949795679537951795D8
:104060001794E118F10A430B560BC90BD00998F0CD
:1040700023957E9173957A3308F070E37C93201337
:10408000B8F77E9170617D9330F0839571E37D93F5
:1040900070E32A95E1F71124EF90FF900F911F91A3
:1040A000CF91DF91992787FD909508950E949820E0
:1040B00008F481E00895E89409C097FB3EF49095D8
:1040C0008095709561957F4F8F4F9F4F9923A9F0F1
:1040D000F92F96E9BB279395F69587957795679580
:1040E000B795F111F8CFFAF4BB0F11F460FF1BC0C4
:1040F0006F5F7F4F8F4F9F4F16C0882311F096E957
:1041000011C0772321F09EE8872F762F05C0662304
:1041100071F096E8862F70E060E02AF09A95660FBD
:10412000771F881FDAF7880F9695879597F9089576
:10413000990F0008550FAA0BE0E8FEEF16161706B8
:10414000E807F907C0F012161306E407F50798F020
:10415000621B730B840B950B39F40A2661F0232B39
:10416000242B252B21F408950A2609F4A140A695B5
:104170008FEF811D811D08950E94CF200C94402156
:104180000E94322138F00E94392120F0952311F04D
:104190000C9429210C942F2111240C9474210E9439
:1041A000512170F3959FC1F3950F50E0551F629F09
:1041B000F001729FBB27F00DB11D639FAA27F00D80
:1041C000B11DAA1F649F6627B00DA11D661F829FA7
:1041D0002227B00DA11D621F739FB00DA11D621F8C
:1041E000839FA00D611D221F749F3327A00D611DA9
:1041F000231F849F600D211D822F762F6A2F11248B
:104200009F5750409AF0F1F088234AF0EE0FFF1FBD
:10421000BB1F661F771F881F91505040A9F79E3F14
:10422000510580F00C9429210C9474215F3FE4F334
:10423000983ED4F3869577956795B795F795E7956A
:104240009F5FC1F7FE2B880F911D9695879597F973
:10425000089597F99F6780E870E060E008959FEF08
:1042600080EC089500240A9416161706180609060D
:10427000089500240A9412161306140605060895DC
:10428000092E0394000C11F4882352F0BB0F40F464
:10429000BF2B11F460FF04C06F5F7F4F8F4F9F4FA4
:1042A000089557FD9058440F551F59F05F3F71F026
:1042B0004795880F97FB991F61F09F3F79F087958D
:1042C0000895121613061406551FF2CF4695F1DF16
:1042D00008C0161617061806991FF1CF86957105A6
:1042E000610508940895E894BB2766277727CB01DA
:1042F00097F908952F923F924F925F926F927F921B
:104300008F929F92AF92BF92CF92DF92EF92FF92E5
:104310000F931F93CF93DF93CDB7DEB7CA1BDB0B91
:104320000FB6F894DEBF0FBECDBF09942A88398836
:1043300048885F846E847D848C849B84AA84B9843D
:10434000C884DF80EE80FD800C811B81AA81B98149
:10435000CE0FD11D0FB6F894DEBF0FBECDBFED015D
:1043600008955058BB27AA270E94C9210C944021C8
:104370000E94322138F00E94392120F039F49F3F09
:1043800019F426F40C942F210EF4E095E7FB0C941D
:104390002921E92F0E94512158F3BA1762077307A8
:1043A0008407950720F079F4A6F50C9473210EF498
:1043B000E0950B2EBA2FA02D0B01B90190010C0135
:1043C000CA01A0011124FF27591B99F0593F50F44D
:1043D000503E68F11A16F040A22F232F342F4427A5
:1043E000585FF3CF469537952795A795F04053959D
:1043F000C9F77EF41F16BA0B620B730B840BBAF06D
:104400009150A1F0FF0FBB1F661F771F881FC2F7D7
:104410000EC0BA0F621F731F841F48F487957795EB
:104420006795B795F7959E3F08F0B0CF9395880FA5
:1044300008F09927EE0F9795879508950E943222EC
:104440000C9440210E94392158F00E94322140F002
:1044500029F45F3F29F00C94292151110C94742107
:104460000C942F210E94512168F39923B1F3552315
:1044700091F3951B550BBB27AA2762177307840777
:1044800038F09F5F5F4F220F331F441FAA1FA9F30D
:1044900035D00E2E3AF0E0E832D091505040E695FB
:1044A000001CCAF72BD0FE2F29D0660F771F881F5C
:1044B000BB1F261737074807AB07B0E809F0BB0B4F
:1044C000802DBF01FF2793585F4F3AF09E3F510563
:1044D00078F00C9429210C9474215F3FE4F3983E0A
:1044E000D4F3869577956795B795F7959F5FC9F74C
:1044F000880F911D9695879597F90895E1E0660FCD
:10450000771F881FBB1F621773078407BA0720F045
:10451000621B730B840BBA0BEE1F88F7E0950895AE
:104520000E94592188F09F5798F0B92F9927B751C9
:10453000B0F0E1F0660F771F881F991F1AF0BA9547
:10454000C9F714C0B13091F00E947321B1E0089511
:104550000C947321672F782F8827B85F39F0B93F03
:10456000CCF3869577956795B395D9F73EF49095FA
:104570008095709561957F4F8F4F9F4F08950E9452
:10458000982008F48FEF08950E949820880B990BCB
:104590000895A1E21A2EAA1BBB1BFD010DC0AA1F84
:1045A000BB1FEE1FFF1FA217B307E407F50720F09C
:1045B000A21BB30BE40BF50B661F771F881F991F17
:1045C0001A9469F760957095809590959B01AC0160
:1045D000BD01CF010895EE0FFF1F0590F491E02D6E
:1045E00009940F931F93CF93DF938230910510F4BA
:1045F00082E090E0E0916103F091620330E020E01E
:10460000B0E0A0E0309799F42115310509F44AC0D3
:10461000281B390B24303105D8F58A819B8161151F
:10462000710589F1FB0193838283FE0111C04081F2
:1046300051810281138148175907E0F04817590743
:1046400099F4109761F012960C93129713961C939D
:104650003296CF01DF91CF911F910F910895009372
:10466000610310936203F4CF2115310551F0421715
:10467000530738F0A901DB019A01BD01DF01F80100
:10468000C1CFEF01F9CF9093620380936103CDCF47
:10469000FE01E20FF31F8193919322503109398378
:1046A0002883D7CF20915F0330916003232B41F4FF
:1046B00020910201309103013093600320935F0346
:1046C00020910001309101012115310541F42DB7F0
:1046D0003EB74091040150910501241B350BE09138
:1046E0005F03F0916003E217F307A0F42E1B3F0B6A
:1046F0002817390778F0AC014E5F5F4F2417350754
:1047000048F04E0F5F1F5093600340935F03819307
:1047100091939FCFF0E0E0E09CCFCF93DF930097A1
:10472000E9F0FC01329713821282A0916103B091EB
:104730006203ED0130E020E01097A1F42081318187
:10474000820F931F20915F03309160032817390770
:1047500009F061C0F0936003E0935F03DF91CF91B4
:104760000895EA01CE17DF07E8F54A815B819E01D3
:1047700041155105B1F7E901FB83EA83499159914C
:10478000C40FD51FEC17FD0761F48081918102965B
:10479000840F951FE90199838883828193819B838C
:1047A0008A83F0E0E0E012968D919C911397009738
:1047B000B9F52D913C911197CD010296820F931F6F
:1047C00020915F03309160032817390739F630973D
:1047D00051F51092620310926103B0936003A093AD
:1047E0005F03BCCFD383C28340815181840F951F67
:1047F000C817D90761F44E5F5F4F88819981480FD0
:10480000591F518340838A819B8193838283211521
:10481000310509F0B0CFF0936203E09361039ECFBE
:10482000FD01DC01C0CF13821282D7CFB0E0A0E03F
:10483000ECE1F4E20C947C218C01009751F4CB0163
:104840000E94F1228C01C801CDB7DEB7E0E10C94E3
:104850009821FC01E60FF71F9C0122503109E21755
:10486000F30708F49DC0D901CD91DC911197C617CB
:10487000D70798F0C530D10530F3CE0104978617DD
:10488000970708F3C61BD70B2297C193D1936D935B
:104890007C93CF010E948D23D6CF5B01AC1ABD0A59
:1048A0004C018C0E9D1EA0916103B0916203512CAE
:1048B000412CF12CE12C109731F580915F03909100
:1048C00060038815990509F05CC04616570608F084
:1048D00058C08091000190910101009741F48DB77B
:1048E0009EB74091040150910501841B950BE81778
:1048F000F90708F055C0F0936003E0935F03F901F6
:1049000071836083A0CF8D919C91119712966C90CA
:10491000129713967C901397A815B90559F56C0159
:1049200042E0C40ED11CCA14DB0420F1AC014A19C8
:104930005B09DA011296159780F0628273825183C7
:104940004083D9016D937C93E114F10471F0D70198
:104950001396FC93EE93129776CF22968C0F9D1FA1
:10496000F90191838083F301EFCFF0936203E09329
:10497000610369CF4816590608F42C017D01D30163
:104980009ACFCB010E94F1227C01009749F0AE0141
:10499000B8010E94D824C8010E948D23870153CFFB
:1049A00010E000E050CF81E090E0F8940C94EF2408
:1049B000FB01DC0102C001900D9241505040D8F73C
:1049C0000895DC0101C06D9341505040E0F7089517
:1049D000FB01DC0101900D920020E1F7089515E044
:1049E000C0EDD5E004C0FE010E94EB222196C13D3E
:0849F000D107C9F7F894FFCFCD
:1049F800000063038000000000009E06FE052B06F1
:104A0800EB065C063A064E06000000006B113E11EC
:104A18001115FB0537112411151100000000F40CC5
:104A2800FE051115AE10FF09FB05990F710F8D0FCB
:104A3800810F0110FB05BA0ABB146F09B809BA0E39
:104A48009D0E250EC60D6E616E00696E66006F764E
:104A580066000D0A00496E636865733A0043656E27
:104A680074696D65746572733A000A446973746198
:104A78006E636520696E20496E636865733A20002D
:104A880044697374616E636520696E2043656E7452
:0A4A9800696D65746572733A2000C1
:00000001FF
